:100000000C9405070C942D070C942D070C942D07C8
:100010000C942D070C942D070C942D070C942D0790
:100020000C942D070C942D070C942D070C942D0780
:100030000C942D070C942D070C942D070C942D0770
:100040000C943B250C942D070C942D070C942D0734
:100050000C942D070C942D070C942D070C942D0750
:100060000C942D070C942D070000FF0000000000E9
:100070000055AB000000000000ABAB00000000002A
:1000800000FF00000000000055AB00000000000071
:10009000FF00000000000000AB0055000000000061
:1000A0005500AB00000000000000FF00002AD50052
:1000B0000055AB00007FAB0000ABAB0000D5560095
:1000C00000FF00002AD5000055AB0000AA56000032
:1000D000FF000000D5002A00AB00550081007F0022
:1000E0005500AB002B00D500006400000064000048
:1000F0002F6B55000064000000800000228B22005E
:10010000238E6B0000800000578B2E00AACD660066
:1001100032CD320032CD9A0090EE900000FC7C008F
:10012000AACD6600228B2200FF0000008B00000099
:100130008B0000008B0000008B0000008B00000093
:100140008B0000008B000000FF0000008B0000000F
:10015000EBCE8700EBCE8700E6D8AD00FFFFFF00B7
:10016000E6D8AD00EBCE87000000000007070600D0
:100170001011100017171500221D1C00282A24003A
:100180003A3B36003436310052555000706C6B00EB
:10019000A1A49800C1C2C100CFCECA00DDDECD004F
:1001A000E0DFDE00B9BAB200FFFFFF000000000090
:1001B0000000000000000000FFFFFF000000000042
:1001C0000000000000000000FFFFFF000000000032
:1001D0000000000000000000FFFFFF000000000022
:1001E00000000000000000000000000000003300DC
:1001F00000006600000099000000CC000000FF0035
:100200000033FF000066FF000099FF0000CCFF00F4
:1002100000FFFF0033FFFF0066FFFF0099FFFF00B4
:10022000CCFFFF00FFFFFF00000000000000800087
:10023000000000000000800000008B000000800033
:1002400000008B0000008B0000008B000000FF000E
:1002500000A5FF00FFFFFF0000A5FF000000FF005A
:1002600000008B0000000000701919008B000000D6
:1002700070191900800000008B000000CD00000004
:10028000578B2E0080800000A09E5F00FF000000C2
:100290008B8B0000ED956400D4FF7F00578B2E0000
:1002A000FFFF0000FACE87000606060606070707CE
:1002B00007070706060606060707070707070606D5
:1002C00006060607070707070706060606060707C6
:1002D00007070707060606060607070707070706B4
:1002E00006060606070707070606060606070707A7
:1002F0000706060606060707070706060606060798
:100300000707070606060606070707070606060686
:100310000605050506060606060606050606050682
:10032000060606060605060606060606060606056F
:10033000060606060606060606050606060606065E
:100340000505050506060606060505050505060656
:100350000606060605050506060606060606060640
:10036000060606060606060606060605060606062E
:100370000606060606060606060606060101060627
:100380000601010606010101010601010101060144
:100390000101010101010101060101010101010148
:1003A0000101060601010101010101060606010124
:1003B000010101010106060606010101010106060F
:1003C00006060606010101060606060606060601E1
:1003D00006060606060606060505060606060605C0
:1003E00005060606060505060605060605050606B3
:1003F00005060606060606060606060605060506A0
:100400000505060506050506050605050605060596
:10041000060606060606060606060605060605057F
:100420000606050606050506060606050506060671
:100430000606050506060606060606070707070759
:100440000706060606060707070706060606060647
:100450000607070606060707060606060606060638
:100460000707070606060606060707070707060624
:100470000606070707070706060606060607070714
:10048000060606060606060606060606060707060A
:1004900006060606060607070707060606060606F8
:1004A00006060606060606060404040404060606F6
:1004B00006040401040104040606060404040404FA
:1004C00004040606060404040404040406060604E0
:1004D00001040404010406060604040101010404E5
:1004E00006060606040404040406060606060606B6
:1004F000060606060606060606060606060606069C
:100500000600070707070700060606060007070795
:10051000000606060606060007000606060606068C
:10052000060600060606060000060606060606067D
:10053000000707000606060606000707070700066D
:100540000606000707070707070006000707070753
:100550000707070700070707070000070707070740
:10056000070700060606060606060707070707062A
:100570000606060606070707070706060606060616
:100580000707070707060606060606070707070701
:1005900006060606060606070707070606060606F7
:1005A00006060707070706060606060606070707E4
:1005B00007060606060606060707070706060606D6
:1005C00006060607070707060105050500000505DD
:1005D00005010501010005050001010505050001F2
:1005E00005050100050505000501050501050005D6
:1005F00000050505010105050500000505050101CA
:1006000005050500050005010505010500050505B1
:1006100000010505010005050501010005050001B2
:100620000105010505050000050505010707070788
:10063000070707070706070707070707070706074C
:10064000070707070707070606060607070707073E
:100650000606060606060707070607060606060636
:100660000607060707070606060606060707070722
:10067000070606060607070707070707070607070F
:1006800007070707070706070707070707070707FB
:10069000000606060606060606000700060606060B
:1006A00006060007070700060606060007070707F5
:1006B00007000606000707070707070700000707E8
:1006C00007070707070700000707070707070700CF
:1006D00006060007070707070006060606000707C5
:1006E00007000606060606060007000606060606BA
:1006F00006060600060606060605050505050605A6
:10070000050506050707070506050605060507058D
:10071000070506050505060507070705060606067B
:100720000605050505050505050505060606060673
:10073000050707070506050505060507050705065C
:10074000050605060507070705060505050605054F
:10075000050505060606060600000000000000006C
:100760000000000006060606060000000505050557
:10077000050505050500000605050605050600003A
:100780000006060606060606000000060006060627
:10079000000600000006060000000606000000003B
:1007A000060606060600000000000000000000002B
:1007B0000000000000000000000000000606060522
:1007C00005050506060606060506060606050606CE
:1007D00006050606000006060506050606000606CE
:1007E00000060605050600060707060006050506BD
:1007F00000060707060006050506060006060006B1
:100800000605060506060000060605060606050698
:10081000060606050606060606050505050606067D
:10082000070707070707070706070606060606065F
:10083000060606070706070707070607060707064F
:100840000606060606070607070607060707060741
:10085000060707060706070706070607070607062F
:100860000606060606070706070607070707060720
:100870000706060606060606060607060707070712
:100880000707070706060606070706060606060701
:1008900006060606060607060606060606060606F7
:1008A00006060606060706060706060607060606E5
:1008B00006060606060707060606060606060607D5
:1008C00006060607060607060606060606060606C6
:1008D00006060606060706060606060607060606B6
:1008E00006060707060606060706060706060706A3
:1008F0000607060707060707060707060607060690
:100900000606060607060706060706060706060782
:100910000607060606060606070606070606060674
:100920000606070607060607060607060607060761
:100930000606060606060706060707060707060751
:100940000706070606070606070606070900000948
:100950000000090000090000000009090000000073
:100960000000000009090000000009000009000063
:100970000900000900090900000000090900000938
:100980000900000000090900090000090000090031
:10099000000900000000090900000000000000003C
:1009A0000909000000000900000900000900000911
:1009B00000070700000000070700070707000707F8
:1009C00000070707070707000707000707070000DA
:1009D00000070707070000000007070700000707D8
:1009E00007000007070700000707070000000007CF
:1009F00007070700000007070700070700070707AA
:100A000007070700070700070707000707000000A0
:100A10000007070007070706060606070707070679
:100A20000606060606060607070607070606070760
:100A3000060706060707070707070606060606074E
:100A40000606070606060606060706060706060643
:100A5000060607070707070706060706070706062D
:100A6000070706070706060606060606060707071F
:100A7000070606060607070707070606070706060E
:100A800007070707060607070606070706060606FE
:100A900006060606060606060606060606060606F6
:100AA00007070606070706060707070706060707DC
:100AB00006060707060606060606060606060606D4
:100AC00006060606060606060707060607070606C2
:100AD00007070707060607070606070707070606AC
:100AE000070706060707070606060707060606079E
:100AF0000606070607070607060606060606070790
:100B0000060606060707070706060707070707077B
:100B1000070706060707070706060606070706066D
:100B20000606060607060707060706060706060660
:100B3000070706060607070706060707060607074C
:100B40000707070707070707070707060706060639
:100B50000607060707070707070707070707070628
:100B6000070606060607060707060706070706071D
:100B7000060707060706070706070607070607060C
:100B800006060607060707070707070707070707F9
:100B900007060706060606070607070707070707EB
:100BA00007070707060706060606060607060706DE
:100BB00007070707070706070607060606060606CD
:100BC00007060607060707070706070606070607BC
:100BD00006060706070606070607060607060706AF
:100BE000060706070707070607060607060606069E
:100BF000060607060706070707070707060706078B
:100C00000606060606060706070606070606070680
:100C10000607060706060606060607060606070670
:100C2000060606070606070606070606070606075F
:100C30000606060607070606060606060606070750
:100C40000606060607060607060607060607060640
:100C50000706060606070606060706060606060631
:100C600007060706060706060706060797A0895B1C
:100C70005A0F830DC95F6035C2E907E18C24671EF6
:100C8000458E086325F0150A17BE0694F778EA4BDF
:100C9000001AC53E5EFCDBCB75230B2039B1215811
:100CA000ED953857AE147D88ABA844AF4AA547866A
:100CB0008B301BA64D929EE7536FE57A3CD385E6B9
:100CC000DC695C29372EF528F4668F3641193FA17F
:100CD00001D85049D14C84BBD05912A9C8C48782CD
:100CE00074BC9F56A4646DC6ADBA034034D9E2FA11
:100CF0007C7B05CA2693767EFF5255D4CFCE3BE34C
:100D00002F103A11B6BD1C2ADFB7AAD577F8980282
:100D10002C9AA346DD99659BA72BAC09811627FD6C
:100D200013626C6E4F71E0E8B2B97068DAF661E494
:100D3000FB22F2C1EED2900CBFB3A2F1513391EB82
:100D4000F90EEF6B31C0D61FB5C76A9DB854CCB051
:100D50007379322D7F0496FE8AECCD5DDE72431DE1
:100D60001848F38D80C34E42D73D9CB497000000D5
:100D7000080002010000030407000000000000005A
:100D800000000000002300260029000000000025CC
:100D90000028002B0000000000240027002A000487
:100DA0000404040404040402020202020203030312
:100DB000030303010204081020408001020408100C
:100DC00020010204081020AB0055007C0084004B79
:100DD00000B5001B00E5000017E8000047B8000060
:100DE00077AB0000ABAB000055AB000022DD000E7E
:100DF00000F2003E00C20071008F00A1005F00D031
:100E0000002F00F907000000852511241FBECFEF39
:100E1000D8E0DEBFCDBF11E0A0E0B1E0E4E5FCE545
:100E200002C005900D92A437B107D9F726E0A4E7D8
:100E3000B1E001C01D92AE3EB207E1F717E0C5E098
:100E4000D7E004C02197FE010E94022EC430D107D2
:100E5000C9F70E94FD250C94282E0C94000020E078
:100E6000DC0160FF03C001C02D932D936250E0F7B9
:100E70007040D0F708954F925F926F927F928F9259
:100E80009F92AF92BF92CF92DF92EF92FF920F9319
:100E90001F93A42FA295AF704F7054E0A59F9001AF
:100EA0001124FB01E20FF31FC590D590E590F4905B
:100EB000270166247724E42D8D2C9E2CAF2CBB2497
:100EC000582D0C2D442309F42FC0FB01AF3009F03D
:100ED00041C00591159125913491522F612F429572
:100EE000407F342F3095242D239F020E20E0211DBA
:100EF000549F050E50E0511DE22FE50F282D239F32
:100F0000020E20E0211D562F549F050E50E0511D6A
:100F1000520F2C2D239F020E20E0211D049F000E56
:100F200000E0011D020F1124DC01EC9311965C938B
:100F3000119712960C931F910F91FF90EF90DF90F5
:100F4000CF90BF90AF909F908F907F906F905F9069
:100F50004F9008953496E20FF31FBBCFDC01179634
:100F60002C91179730E0F901ED54F24FE491169669
:100F7000EC9316972156324FF9018491E82FF0E057
:100F8000EE0FFF1FE557F24F8591949113969C93B6
:100F90008E931297F9012491E22FF0E0EE0FFF1FDC
:100FA000EF57F24F8591949115969C938E931497D9
:100FB000089580E991E008953FB7F89480912E0359
:100FC00090912F03A0913003B091310326B5A89BD7
:100FD00005C02F3F19F00196A11DB11D3FBFBA2FCB
:100FE000A92F982F8827BC01CD01620F711D811D8B
:100FF000911D42E0660F771F881F991F4A95D1F710
:1010000008958F929F92AF92BF92CF92DF92EF920C
:10101000FF924B015C010E94DC076B017C010E9486
:10102000DC076C197D098E099F09683E73408105B4
:101030009105A8F321E0821A9108A108B10888EE71
:10104000C80E83E0D81EE11CF11C81149104A10498
:10105000B10429F7FF90EF90DF90CF90BF90AF9051
:101060009F908F9008952FB7F89460912A03709104
:101070002B0380912C0390912D032FBF08954F9245
:101080005F926F927F929F92AF92BF92CF92DF92C8
:10109000EF92FF920F931F93CF93DF9300D01F9295
:1010A000CDB7DEB7F0906106809164069091650639
:1010B000A0916606B0916706892B8A2B8B2BD9F0FD
:1010C0000E94DC0700915D0610915E0620915F068C
:1010D00030916006601B710B820B930B00916406CC
:1010E00010916506209166063091670660177107BA
:1010F00082079307C8F20E94DC0760935D06709335
:101100005E0680935F0690936006E0916C06F09116
:101110006D06309759F040916806509169066091CC
:101120006A0670916B068F2D0995F82E00915B066B
:1011300010915C064F2C512C712C612C011511055E
:1011400009F45EC0D8011C96EC901C978091620651
:10115000909163068436910510F41C961C92D80178
:10116000ED91FC91A280B38019821A821B82FF202C
:1011700089F1F8013696D12CC12C2191222319F145
:101180009280992001F130E050E040E02F5F3F4F26
:101190004F4F5F4FC301B2010E94D22D9B01AC01A2
:1011A000892D90E0B0E0A0E0BC01CD016F5F7F4FE2
:1011B0008F4F9F4F0E94D22DA1E0B0E0AC0FBD1F1A
:1011C000AC0DBD1D8C93BFEFCB1ADB0A83E0C816B4
:1011D000D10499F6D8011D964D915C911E971296F7
:1011E0006D917C919E012F5F3F4FC801F5010995DC
:1011F000D8011C96EC921C9714960D911C919ECFD1
:101200008091590690915A068C010F5F1F4F1093E1
:101210005A060093590649978CF10E9433089B01A6
:10122000AC0188EE93E0089FB001099F700D189FF4
:10123000700D1124072E000C880B990BC0905506D9
:10124000D0905606E0905706F09058062C193D09AC
:101250004E095F090E94B42A309363062093620608
:1012600010925A06109259060E9433086093550650
:101270007093560680935706909358060F900F90E0
:101280000F90DF91CF911F910F91FF90EF90DF9022
:10129000CF90BF90AF909F907F906F905F904F9056
:1012A00008950F931F93CF93DF93EC01898186FDFF
:1012B0003EC08B8190E0FC01E359F24F2491FC0188
:1012C000ED54F24F3491FC01E156F24FE49190E07D
:1012D00080E0EE23E1F0222359F0233009F4B5C079
:1012E00008F0A8C0213009F4B6C0223009F4B7C014
:1012F000F0E0EE0FFF1FEF57F24FA591B491EC9184
:101300003E2341E020E009F440E0842F922F398110
:1013100035FB222720F937FB332730F9232731E02B
:10132000832781708227988180FB90F99883888138
:1013300080FFC0C082FDBEC081FD9EC082608883E8
:101340000E9433086E877F87888B998B888180FD08
:101350001DC082FF4DC08B7F888383FD03C08C85B9
:101360008F5F8C878881877F88838981816089836B
:101370000E9433086E877F87888B998B89818B7F4A
:10138000898383FF03C0877F80618983888182FF8F
:101390002FC080FF2DC00E9433080E851F8528892D
:1013A0003989AB01BC01401B510B620B730B8E8161
:1013B0009F81B0E0A0E0481759076A077B07C0F09B
:1013C000888183FD15C087719C859F5F9295990FD9
:1013D000907E8860892B88831C861D868981846025
:1013E000877F89830E9433086E877F87888B998BDC
:1013F0000E9433080E851F8528893989AB01BC01FD
:10140000401B510B620B730B88859985B0E0A0E0FF
:10141000481759076A077B0740F08C85882329F015
:101420008D871C86888180618883DF91CF911F9191
:101430000F9108952730B1F02830D1F0243009F011
:1014400057CF809180008F7D03C0809180008F777F
:10145000809380004DCF84B58F7784BD49CF84B50C
:101460008F7DFBCF8091B0008F778093B00040CF0D
:101470008091B0008F7DF9CF0E9433080E851F85C3
:1014800028893989AB01BC01401B510B620B730BDE
:101490008C819D81B0E0A0E0481759076A077B075F
:1014A00008F454CF88818460888389818260886051
:1014B00089834CCF88818D7F888348CFCF92DF92FC
:1014C000EF92FF921F93CF93DF93EC018A8180FF0D
:1014D00003C0CE010E945109898182FB112710F9B6
:1014E00082FD0AC010E0812FDF91CF911F91FF9004
:1014F000EF90DF90CF9008950E943308CE84DF8470
:10150000E888F988AB01BC014C195D096E097F09B7
:101510008A859B85B0E0A0E0481759076A077B07DA
:1015200008F30E9433086E877F87888B998BDBCF07
:10153000CF93DF93EC018A8180FF03C0CE010E942C
:101540005109988194FB882780F994FF05C02D8567
:10155000213029F49F7E9883DF91CF91089580E018
:10156000FBCF2F923F924F925F926F927F928F921A
:101570009F92AF92BF92CF92DF92EF92FF920F9322
:101580001F93CF93DF93CDB7DEB729970FB6F894AB
:10159000DEBF0FBECDBF898749835A836B837C83AF
:1015A00000915B0610915C06BDE78B2E912CA12C5F
:1015B000B12C0115110509F467C0D801ED91FC911A
:1015C0000084F185E02DC80109951C01D80112960F
:1015D000ED91FC91C12CD12C7601412C512C320182
:1015E00020E030E0A901009791F06081260F311DC5
:1015F000411D511D6181460E511C611C711C62818F
:10160000C60ED11CE11CF11C01973396ECCFABE464
:10161000B0E00E94A12A6D837E838F839887A30107
:1016200092010E94A12A2B013C01A70196010E9470
:10163000A12A2D813E814F815885C32ED42EE52EBF
:10164000FF2445E0429D9001439D300D1124C20EC0
:10165000D31EE11CF11C8C0C9D1CAE1CBF1C452C28
:10166000562C672C7724840C951CA61CB71C472F7E
:10167000582F692F7727840E951EA61EB71ED801F6
:1016800014960D911C9195CFB985CB2ED12CF12CB0
:10169000E12CA7019601C501B4010E94D22D872E2D
:1016A000982EA92EBB2429813A814B815C81821618
:1016B0009306A406B50668F0A701960169817A81B0
:1016C0008B819C810E94D22DA50194010E94B42A95
:1016D0002987898529960FB6F894DEBF0FBECDBF46
:1016E000DF91CF911F910F91FF90EF90DF90CF90FE
:1016F000BF90AF909F908F907F906F905F904F9032
:101700003F902F900895FC01A281B3819C91868126
:101710002681982381E0921380E00895FC01868160
:101720000280F381E02D9081809589238083089544
:10173000FC0196810280F381E02D8081892B8083DA
:101740000895282F382F37FD2095229F020E20E084
:10175000211D000C221F37FD20951124822F089592
:101760005F926F927F928F929F92AF92BF92CF9231
:10177000DF92EF92FF920F931F93CF93DF93062F89
:10178000272FF42E652E692F70E0FB01E459F34FEB
:101790004491420F50E0FA01E459F34FE490E60C13
:1017A0004359534FFA014491862C840EFB01E359AF
:1017B000F34F7491270F30E0F901E459F34FC490CF
:1017C000C60CF901E359F34FE4916E0E182F1695EC
:1017D000C02FC695AC2EBF2CB6949B2C0E94A10B9B
:1017E000D82F802F0E94A10B082F8F2D0E94A10BB4
:1017F000582E60E8610FD12CF601E459F34FE491C3
:101800008E2F8F702C2F83FF262F3C2F843030F0AB
:101810008C3019F03B2D8E3009F4362FE0FD2195E8
:10182000E1FD319535952595231FF12CF701E459FC
:10183000F34FE4918E2F8F709C2F83FF912F3C2FBD
:10184000843030F08C3019F03B2D8E3009F4312F7C
:10185000E0FD9195E1FD3195492F35954595431F63
:10186000942F42170CF039C0241B7D2F279F020EA6
:1018700020E0211D1124920F80E8782E7C0EA62DE9
:10188000B0E0FD01E459F34FE4918E2F8F70372DB6
:1018900083FF362F272D843030F08C3019F02B2D1C
:1018A0008E3009F4262FE0FD3195E1FD2195259537
:1018B0003595321F482D50E0FA01E459F34FE49179
:1018C0008E2F8F70272D83FF212F843088F08C304E
:1018D00011F08E3071F4912E0CC0842F821B282FB2
:1018E0003D2F239F020E20E0211D1124921BC4CF07
:1018F000972CE0FD2195E1FD9194792D7595259525
:10190000271F23170CF0C2C0321B7D2F379F030EF9
:1019100030E0311D1124922E930E80E8B80EF601AE
:10192000E359F34FE4913E2F3F708C2F33FF862F06
:10193000343008F4B7C03C3009F4B6C03E3009F486
:10194000B3C03B2DE0FD8195E1FD3195282F359504
:101950002595231F822FF701E359F34FE491FE2FC2
:10196000FF703C2FF3FF312FF43030F0FC3019F0D2
:10197000AB2CFE3009F4A12EE0FD3195E1FDA194E0
:101980007A2D75953595371F38170CF08FC0C82FF5
:10199000C31B2C2F7D2F279F020E20E0211D112419
:1019A000C22FC30FFD01E359F34FE4913E2F3F7067
:1019B000872D33FF862F343008F484C03C3019F073
:1019C0003E3009F06B2DE0FD8195E1FD6195282FFA
:1019D00065952595261F822FFA01E359F34FE4916F
:1019E0005E2F5F70372D53FF312F543008F46CC0D9
:1019F0005C3019F05E3009F01B2DE0FD3195E1FD02
:101A0000119515953595311F38170CF05FC0831B64
:101A1000482F7D2F479F040E40E0411D1124340FB5
:101A200099150CF05DC0292D291B209F020E20E086
:101A3000211D1124920FC3170CF05BC03C1B309F7B
:101A4000030E30E0311D11243C0F93170CF05BC0E6
:101A5000391B452D349F030E30E0311D1124930FA7
:101A6000905C292F220F08F42FEF822FDF91CF9166
:101A70001F910F91FF90EF90DF90CF90BF90AF90AC
:101A80009F908F907F906F905F900895822F831B1F
:101A9000382F7D2F379F030E30E0311D1124922EF9
:101AA000931A3BCF3C2F4ECF362F4CCFE32FE81B62
:101AB0002E2F7D2F279F020E20E0211D1124C32FE2
:101AC000C21B70CF672D7FCF172D97CF432F481B99
:101AD0002D2F429F040E40E0411D1124341BA0CF46
:101AE000292F2919209F020E20E0211D1124921B6D
:101AF000A2CF2C2F231B209F020E20E0211D11249A
:101B00003C2F321BA2CF292F231B752D279F020E9E
:101B100020E0211D1124921BA3CF1F93DC01FB01A8
:101B20007C9111964C91119712961C91972F990FB9
:101B3000990F990F35E5292F239F020E20E0211DD3
:101B40001124822F672F6074572F507277FD6FC05A
:101B500061115BC0511105C0922F9095892F90E0C3
:101B600004C025E5280F90E08BEA4F3F09F424C01C
:101B7000442309F47DC0882331F0382F349F030EAD
:101B800030E0311D832F222321F0249F020E20E01C
:101B9000211D992331F0392F349F030E30E0311D80
:101BA000932F1124342F3095339F030E30E0311DD5
:101BB0001124830F230F930F1F3F09F421C030E03E
:101BC000112321F0119F312D09F03F5F332309F4D8
:101BD00053C0882331F0482F439F040E40E0411D3D
:101BE000842F222321F0239F020E20E0211D992320
:101BF00031F0492F439F040E40E0411D942F1124E2
:101C00008083218392831F91089551110BC0392F36
:101C10002AEA329F030E30E0311D11249BEA931B08
:101C2000280F9CCF90E02095982F80E09ECF6111E7
:101C300012C051110CC0392F2AEA329F030E30E036
:101C4000311D11242BEA231B95E5930FEECF922F24
:101C5000909520E08ACF511106C025E5280F9BEA18
:101C6000981B822FF6CF2AEA280F90E0932FF8CF07
:101C70009FEF2FEF8FEFA0CF90E020E080E0C0CF6C
:101C8000FC01DB013C912081230F08F42FEF20831E
:101C900011963C9111972181230F08F42FEF218396
:101CA00012963C912281230F08F42FEF228308958E
:101CB000FC013081329F030E30E0311D3083FB0187
:101CC0003081329F030E30E0311D3083FA013081C4
:101CD000329F030E30E0311D308311240895CF93DD
:101CE000DF93EC01262FAC014E5F5F4FBC016F5FAD
:101CF0007F4F0E94580ECE01DF91CF9108950F9330
:101D00001F93CF93DF93209128032F5F322F3770DB
:101D10003093280320FF2BC020E831FD206434706D
:101D200009F02062205FFC01EC01239600E011E045
:101D30006485662329F070E0C8010E94EE2D6F5F74
:101D40006187322F369F030E30E0311D112431118F
:101D500010C01682662311F0615061873196EC172E
:101D6000FD0731F7DF91CF911F910F91089520E08A
:101D7000D4CF31503683EECF4F925F926F927F92E5
:101D80008F92AF92BF92CF92DF92EF920F931F93F9
:101D9000CF93DF933C01EB010E94DC07F301278521
:101DA0003089621B730B6A307105B0F3F894E881D7
:101DB000F9817BB170646BB16F7B6BB9CA848F8121
:101DC0002C2D281B822F2F83BF844A805B801D858A
:101DD0000C85DE841F5F0F5FD3949E813885A984B4
:101DE000EB844181D20120E0C32F522F322F318169
:101DF000442788943111380F08F43FEF8195889477
:101E000010FD430F4795889411FD430F4795889423
:101E100012FD430F4795889413FD430F479588940F
:101E200014FD430F4795889415FD430F47958894FB
:101E300016FD430F4795889417FD430F47958894E7
:101E4000232F1111242F8C0D422F002C7BB900C0A1
:101E500047FF6BB930812227889400C000C0002C56
:101E60006BB93111390F00C0002C7BB900C046FF9F
:101E70006BB908F43FEF9195889400C000C0002C26
:101E80006BB900FD230F00C0002C7BB900C045FFDB
:101E90006BB92795889401FD230F00C000C0002C6A
:101EA0006BB92795889400C0002C7BB900C044FF13
:101EB0006BB902FD230F2795889400C000C0002C49
:101EC0006BB903FD230F00C0002C7BB900C043FF9A
:101ED0006BB92795889404FD230F00C000C0002C27
:101EE0006BB92795889400C0002C7BB900C042FFD5
:101EF0006BB905FD230F2795889400C000C0002C06
:101F00006BB906FD230F00C0002C7BB900C041FF58
:101F10006BB92795889407FD230F00C000C0002CE3
:101F20006BB92795889400C0002C7BB900C040FF96
:101F30006BB9432F0111422F9A0D00C000C0002C35
:101F40006BB900C000C0002C7BB900C047FF6BB963
:101F500032812227889400C000C0002C6BB9311157
:101F60003C0F00C0002C7BB900C046FF6BB908F4E1
:101F70003FEFEB0DF11D00C000C0002C6BB9D0FC91
:101F8000230F00C0002C7BB900C045FF6BB927951B
:101F90008894D1FC230F00C000C0002C6BB927959A
:101FA000889400C0002C7BB900C044FF6BB9D2FC00
:101FB000230F2795889400C000C0002C6BB9D3FC78
:101FC000230F00C0002C7BB900C043FF6BB92795DD
:101FD0008894D4FC230F00C000C0002C6BB9279557
:101FE000889400C0002C7BB900C042FF6BB9D5FCBF
:101FF000230F2795889400C000C0002C6BB9D6FC35
:10200000230F00C0002C7BB900C041FF6BB927959E
:102010008894D7FC230F00C000C0002C6BB9279513
:10202000889400C0002C7BB900C040FF6BB9432FDF
:10203000D110422FC19500C000C0002C6BB9CE0D4D
:1020400000C000C07BB900C047FF6BB931812227B7
:10205000889400C000C0002C6BB93111380F00C04B
:10206000002C7BB900C046FF6BB908F43FEF8195A7
:10207000889400C000C0002C6BB910FD230F00C075
:10208000002C7BB900C045FF6BB92795889411FDE2
:10209000230F00C000C0002C6BB92795889400C0A6
:1020A000002C7BB900C044FF6BB912FD230F2795AC
:1020B000889400C000C0002C6BB913FD230F00C032
:1020C000002C7BB900C043FF6BB92795889414FDA1
:1020D000230F00C000C0002C6BB92795889400C066
:1020E000002C7BB900C042FF6BB915FD230F27956B
:1020F000889400C000C0002C6BB916FD230F00C0EF
:10210000002C7BB900C041FF6BB92795889417FD5F
:10211000230F00C000C0002C6BB92795889400C025
:10212000002C7BB900C040FF6BB9432F1111422F27
:102130008C0D00C000C0002C6BB9119709F086CE41
:1021400020EE31E0D2010E94082EDC01CB01F4E048
:10215000B695A79597958795FA95D1F730E020E049
:10216000B901EAE94E9E040C611D5E9E600D711D71
:102170001124650D711D860F971FA11DB11D893E8C
:1021800043E09407A105B10508F434C0885E93408C
:10219000A109B10942E0B695A795979587954A950B
:1021A000D1F747E0849F080E211D949F200D311D1B
:1021B0001124290F311D6091270370E0860F971FAE
:1021C000820F931F40912A0350912B0360912C039F
:1021D00070912D03292F3327420F531F611D711D4D
:1021E00040932A0350932B0360932C0370932D0389
:1021F0008093270378940E94DC07F301708B678734
:10220000DF91CF911F910F91EF90DF90CF90BF9012
:10221000AF908F907F906F905F904F900895569AF7
:1022200008950F931F93CF93DF93CDB7DEB76297D7
:102230000FB6F894DEBF0FBECDBF8C01F901DC01F3
:102240001C968C917A8369835C834B835E834D8378
:1022500090819D8791819E8792819F878130F1F443
:10226000CE0101960E947F0E83E0888B1A8A198A1C
:10227000D801ED91FC910484F585E02DBE016F5FDE
:102280007F4FC801099562960FB6F894DEBF0FBE66
:10229000CDBFDF91CF911F910F9108951C861B86B2
:1022A0001A86198618861F82DFCF0F931F93CF934C
:1022B000DF93CDB7DEB762970FB6F894DEBF0FBEDF
:1022C000CDBF8C01F901DC011C968C917A83698366
:1022D0005C834B835E834D8390819D8791819E8734
:1022E00092819F878130E9F4CE0101960E947F0E92
:1022F000188A1A8A198AD801ED91FC910484F5850F
:10230000E02DBE016F5F7F4FC801099562960FB641
:10231000F894DEBF0FBECDBFDF91CF911F910F911B
:1023200008951C861B861A86198618861F82E0CFA0
:102330002FE030E0261B310944E0220F331F4A957D
:10234000E1F7820F932F911D8F3F910509F0A0F4C3
:10235000FC01EE0FFF1FE80FF91FEB5AFC4F208125
:10236000618170E090E080E0982F872F762F6627BC
:10237000822B2281622B089560E070E0CB010895EA
:10238000DA018031F0F46031E0F4EFE0F0E0E61BD8
:10239000F10994E0EE0FFF1F9A95E1F78E0F9F2F42
:1023A000911DFC01EE0FFF1FE80FF91FEB5AFC4FC8
:1023B0008C91808311968C911197818312968C91C8
:1023C000828308952F923F924F925F926F927F92F5
:1023D0008F929F92AF92BF92CF92DF92EF92FF9235
:1023E0000F931F93CF93DF93CDB7DEB767970FB6E9
:1023F000F894DEBF0FBECDBF4B015C0129013A014D
:10240000198708870E94C92B072E000C880B990B8F
:102410000E94012C9B01AC01C501B4010E94E52A78
:1024200020E030E04FE753E40E94182D0E94D02BAB
:10243000162FC301B2010E94C92B072E000C880B76
:10244000990B0E94012C9B01AC01C301B2010E94B7
:10245000E52A20E030E04FE753E40E94182D0E9467
:10246000D02B262F209530E0D9011196412F409591
:1024700050E0A49FC001A59F900DB49F900D112422
:10248000820F931F9983812F90E0A89FF001A99F4D
:10249000F00DB89FF00D11242E0F3F1F3A8370E00E
:1024A000FB0131964E9F90014F9F300D5E9F300D86
:1024B0001124260F371F3B838E9F90018F9F300D75
:1024C0009E9F300D1124620F731F7C83312C212CB1
:1024D000222D21702E871F864E855F85BA01550FEC
:1024E000880B990B0E94012CA50194010E94E62AF9
:1024F0000E94C92B6A877B878C879D87B101759560
:102500006795072E000C880B990B0E94012CA301E4
:1025100092010E94E62A0E94C92B6B018A850E94C3
:1025200098119C0144275527288B398B4A8B5B8B4C
:10253000272F382F492F55272C8B3D8B4E8B5F8BA8
:10254000E885F98500812181A281F60131973E97C6
:1025500008F04CC0EA85FB8531973E9708F046C0ED
:10256000E1E0F0E0EC0FFD1FE20DF31D4081409F24
:10257000800111243889310F08F43FEF429F800118
:1025800011242C89210F08F42FEF4A9FA001112458
:10259000650F08F46FEF3D832E836F83AE014B5FB1
:1025A0005F4F6C2D8A850E94C0112FEF221A320ACC
:1025B00034E02316310409F08BCF67960FB6F894F8
:1025C000DEBF0FBECDBFDF91CF911F910F91FF9066
:1025D000EF90DF90CF90BF90AF909F908F907F90C3
:1025E0006F905F904F903F902F900895F5E50F9F6B
:1025F000800111243889310F08F43FEF2F9FA0018B
:1026000011242C89250F08F42FEFAF9FA00111246E
:10261000BFCFFF920F931F93CF93DF9300D01F92F2
:10262000CDB7DEB710E000E0FF24F394F00E6F2D7D
:10263000812F0E94981189837A836B83AE014F5F4B
:102640005F4F602F812F0E94C0110F2D0F3061F757
:102650001F5F103141F70F900F900F90DF91CF91D6
:102660001F910F91FF9008950F931F93962F6FE086
:1026700070E0691B7109E4E0660F771FEA95E1F7E6
:10268000860F972F911D8F3F910509F090F5BC01A2
:10269000660F771FFB01E80FF91FEB5AFC4FB08163
:1026A000A1810A2F10E030E020E0322F212F102FDF
:1026B00000272B2B5281052B012B022B032BC9F05A
:1026C000BE3120F4AE3110F45E3180F0860F971FDA
:1026D000242F2095AC01495A5C4FBC016A5A7C4FAB
:1026E0008B5A9C4F1F910F910C94580E108211829F
:1026F00012821F910F910895CF93DF93C0E0D0E035
:1027000046E46D2F8C2F0E943413DF5FD031C1F768
:10271000CF5FC031A1F7DF91CF9108956F927F9283
:102720008F929F92AF92BF92CF92DF92EF92FF92E1
:102730000F931F93CF93DF9381E2C82E82E0D82EB0
:1027400010E000E08090070190900801809E300129
:10275000819E700C909E700C1124B12CA12CF12C38
:10276000E12CC0912503D091260360912303709141
:1027700024036A0D7B1D8091210390912203AE01F9
:10278000860D971D0E94B00BF601EE0DFF1D808394
:102790008FEFE81AF80AA80CB91C80E1E816F104DA
:1027A00001F70F5F1F4F80E1C80ED11C00311105EA
:1027B00049F68091050190910601C81BD90BD09371
:1027C0002603C0932503DF91CF911F910F91FF90B6
:1027D000EF90DF90CF90BF90AF909F908F907F90C1
:1027E0006F900895AF92BF92CF92DF92EF92FF92D7
:1027F0000F931F93CF93DF9300D000D000D0CDB7BD
:10280000DEB7A82E10E000E03AEAC32ED12CEE2469
:10281000EA94B02EE09137018E2FEE0F990BFC0158
:10282000EE0FFF1FE80FF91FE65FFE4F2281209F8A
:10283000C001219F900D1124B6010E94EE2D9091B0
:102840002002890F8C83ED82EE82F12CBE016F5F36
:102850007F4FCE0104960E948D0D6B2D8F2DAA20E7
:1028600011F06F2D8B2DAE014F5F5F4F0E94C01195
:10287000F39480E1F812EACF0F5F1F4F003111058A
:1028800041F626960FB6F894DEBF0FBECDBFDF919E
:10289000CF911F910F91FF90EF90DF90CF90BF905D
:1028A000AF90089590E080E00895FC0185859685BD
:1028B0000895CF93DF9300D000D000D0CDB7DEB71E
:1028C000AB011C821D821E82DC01ED91FC91019006
:1028D000F081E02D19821A821B829E012F5F3F4FEB
:1028E000BE016C5F7F4F099526960FB6F894DEBF48
:1028F0000FBECDBFDF91CF9108954091000150915F
:10290000010125E038E0429FC001439F900D529F96
:10291000900D1124875E994C9093010180930001E2
:10292000890F0895CF93DF93DC011C961C921C97AE
:102930001D961C921D971E961D921D921D921C9213
:10294000519713966C9313978CE390E015969C9394
:102950008E93149784EF91E017969C938E9316971D
:1029600080E991E01B969C938E931A978CE291E0FC
:1029700019969C938E93189711968C9111978F7935
:102980008F7711968C93119712968C9112978E7F58
:1029900012968C93129770E0FB01ED54F24F8491E4
:1029A0006156724FFB0124912223C9F030E0220FBF
:1029B000331FF901EB56F24F45915491F901E55758
:1029C000F24FC591D4912FB7F894FA013081982F26
:1029D000909593239083E8818E2B88832FBF119647
:1029E0008C9111978F7711968C93119713968C91E8
:1029F000139790E0FC01ED54F24F24918156924FD1
:102A0000FC0184918823C9F090E0880F991FFC0194
:102A1000EB56F24F45915491FC01E557F24FC591A9
:102A2000D4919FB7F894FA013081822F8095832347
:102A30008083E8812E2B28839FBF11968C9111975C
:102A40008F7D11968C93DF91CF9108950E94232E54
:102A5000CF92DF92EF92FF926B017C01C114D104FF
:102A6000E104F10441F00E94142AA70196010E949A
:102A7000822A6B017C01C701B601FF90EF90DF90C5
:102A8000CF9008950C94742A0C946C2A2F923F9244
:102A90004F925F926F927F928F929F92AF92BF926E
:102AA000CF92DF92EF92FF920F931F93CF93DF931A
:102AB000CDB7DEB76B970FB6F894DEBF0FBECDBFB4
:102AC00080913801882309F4DDC00E943308009109
:102AD0001C0210911D0220911E0230911F02AB01B9
:102AE000BC01401B510B620B730B109137018EEF31
:102AF000810F873008F438C0812F012E000C990B0C
:102B0000FC01EE0FFF1FE80FF91FE65FFE4F81810A
:102B100090E0B0E0A0E0481759076A077B0708F487
:102B2000B1C00E94330860931C0270931D02809311
:102B30001E0290931F021F3008F05CC0E12F110F9E
:102B4000FF0BEB55FA4E0C94022EB9155B162117AC
:102B5000D617911BE11B531DF71D2D1E4B1E321F57
:102B60007E1F49202E22322382E390E0A0E0B0E0D5
:102B7000D2CF10E00FEFE09137018E2FEE0F990BBF
:102B8000FC01EE0FFF1FE80FF91FE65FFE4F828189
:102B9000181770F560E170E080E090E00E94281561
:102BA000F62E60E170E080E090E00E942815E62EAD
:102BB0008F2D0E949811672B682B692BB9F46FEF4A
:102BC00070E080E090E00E9428156C830D830E83F6
:102BD000BE016F5F7F4FCE0104960E948D0DAE0146
:102BE0004F5F5F4F6E2D8F2D0E94C0111F5FC3CFAF
:102BF0000E947C1380915103823011F40C945D2467
:102C0000833011F40C94A1248130D1F5E091370187
:102C10008E2FEE0F990BFC01EE0FFF1FE80FF91F2F
:102C2000E65FFE4F608170E06F5F7F4F072E000C04
:102C3000880B990B0E94012C0E948B2D0E94D02B97
:102C400060931B0210E0EAE0FE2E0FEF80911B0262
:102C5000181710F00C945524F9820A830B83BE01D7
:102C60006C5F7F4FCE0101960E948D0DAE014C5FCF
:102C70005F4F612F80E00E94C0111F5F103131F75C
:102C80000E943F086B960FB6F894DEBF0FBECDBF13
:102C9000DF91CF911F910F91FF90EF90DF90CF9038
:102CA000BF90AF909F908F907F906F905F904F906C
:102CB0003F902F90089560910E0170E090E080E0C9
:102CC0000E94012C20E030E04FE753E40E94572B94
:102CD00020E030E040EC50E40E94182D2DEC3CEC5C
:102CE0004CE45DE30E94E62A6B017C0160912002C6
:102CF00070E090E080E00E94012C9B01AC01C701D4
:102D0000B6010E94E62A0E94D02BF62E6093200284
:102D100060910F0180E0653508F490C06B3A08F0CF
:102D20008CC070E090E080E00E94FF2B20E030E05B
:102D30004AEA52E40E94E52A23E333E34BE751E4F5
:102D40000E94182D20E030E04AEA52E40E94572BFE
:102D50002DEC3CEC44E051E40E94E62A4B015C017E
:102D600010E000E08F2D90E0B0E0A0E08E879F871C
:102D7000A88BB98BDD24DA94C02EF12CE12CC8018C
:102D8000012E000CAA0BBB0B8A879B87AC87BD87E3
:102D9000B7010F2C000C880B990B0E94012CA50188
:102DA00094010E94182D2B013C016A857B858C853E
:102DB0009D850E94012C9B01AC01C301B2010E94C0
:102DC000E62A20E030E04FE751E40E94182D2B0165
:102DD0003C016E857F85888999890E94012C9B0121
:102DE000AC01C301B2010E94E62A0E94D02B698384
:102DF000DA82DB82BE016C5F7F4FCE0101960E94BA
:102E00008D0D8C8189838D818A838E818B83AE0128
:102E10004F5F5F4F6E2D8C2D0E94C0119FEFE91AFE
:102E2000F90AA0E1EA16F10409F0B2CF0F5F1F4FD3
:102E30000031110509F0A0CFDDCE81E00E94F21330
:102E4000D9CE80910901882379F0E0915303F0E015
:102E5000EE0FFF1FE15AFE4F808191819093B706DC
:102E60008093B606109209012091110130E050E0E4
:102E700040E02150310941095109A1E0BFEF0E9412
:102E8000AF2A2EEF30E040E050E00E94822A690134
:102E90007A01BFEFCB0ED11CE11CF11C1091120185
:102EA000125E0E9433082B013C01212E312CA70118
:102EB00096013327442755270E94B42A3B872A8747
:102EC000912C812C0FE0C101032C000CAA0BBB0B31
:102ED0008E879F87A88BB98B50E1A52EB12CC12C72
:102EE000D12C760120E030E040E751E4C701B60183
:102EF0000E94E52A0E94C92B162F17FD11956E8599
:102F00007F85888999890E94012CA70196010E94DA
:102F1000182D6A8B7B8B8C8B9D8BC301B2010E9419
:102F2000FF2B9B01AC016A897B898C899D890E945A
:102F3000E62A0E94D02B4A855B85C4010E94B00B13
:102F400091E1199F102D1124482F411B08F440E0F6
:102F50006091B6067091B706CE0101960E943B07BC
:102F6000A701960160E070E080E791E40E94E52A05
:102F70000E94D02BAE014F5F5F4F802F0E94C01187
:102F800020E030E040E85FE3C701B6010E94E62A96
:102F90006B017C01A1E0AA1AB10809F0A3CF01508E
:102FA000820C931C0F3F09F097CF24CE809109012A
:102FB000882309F49AC00BEA11E0F12CE12C26E0F9
:102FC000322ECC24C394DC2C412C512C40E8642EAE
:102FD0004FE3742E62E070E080E090E00E942815DC
:102FE0006F5F7F4F8F4F9F4F0E94012CF8016487C6
:102FF0007587868797870E947D14839DC001112461
:1030000065E0690F70E090E080E00E94FF2B4B01CB
:103010005C01E09137018E2FEE0F990BFC01EE0F52
:10302000FF1FE80FF91FE65FFE4F8181B601681BA5
:10303000710990E080E00E94FF2B9B01AC01C5016B
:10304000B4010E94572B20E030E040E85EE30E948C
:10305000182DD80118966D937D938D939C931B9793
:10306000F80110821182128213820E947D14682F4F
:1030700070E0660F771F672F77276E0D7F1D90E03A
:1030800080E00E94FF2BD80114966D937D938D9361
:103090009C93179720E030E0A90118966D917D91DF
:1030A0008D919C911B970E94522B811105C0F801B4
:1030B0004086518662867386E0915303F0E0EE0FFE
:1030C000FF1FE15AFE4F808191819093B706809354
:1030D000B606005F1F4FF2E0EF0EF11C2EE0E21685
:1030E000F10409F077CF1092090175E5E72E76E03B
:1030F000F72E05E513E064E6C8010E946F0E0D5F30
:103100001F4FE016F106B9F7F12CE12C1F8218864B
:10311000198687010E5A1C4FD12CC12CD801139649
:103120002C9113972C8314969C9114979D8315963C
:103130008C918E8329839A838B836AE0CE010196DA
:103140000E946F0E6BEECE0104960E946F0EBE01C0
:10315000695F7F4FCE0104960E94400EC114D104D6
:1031600031F0BE016F5F7F4FC8010E94400E8C811D
:10317000F80183838D8184838E81858389818F8308
:103180008A8188878B818987FFEFCF1ADF0A0D5FDD
:103190001F4F20E1C216D10409F630E3E30EF11C03
:1031A000E11443E0F40609F0B1CF55E2C52E56E034
:1031B000D52EF12CE12C6FE0A62EB12C1F821886A3
:1031C00019868601912CD8012C912C8311969C9103
:1031D00011979D8312968C918E8329839A838B837A
:1031E0006AE0CE0101960E946F0E6BEECE0104964E
:1031F0000E946F0EBE01695F7F4FCE0104960E9450
:10320000400E9920C9F08FEF890DF501E81BF109F7
:10321000CF0124E0880F991F2A95E1F78E0D9F1D9D
:103220009C01220F331F820F931FBE016F5F7F4FE0
:103230008B5A9C4F0E94400E8C81D8018C938D81BB
:1032400011968C9311978E8112968C9389818F831E
:103250008A8188878B818987939400531109B0E113
:103260009B12B1CFEFEFEE1AFE0AF3E0CF0ED11CA6
:1032700020E1E216F10409F0A1CF8BEA91E09B87EF
:103280008A87AA85BB85CD90DD90ED90FC9020E0EB
:1032900030E040E851E4C701B6010E94182D0E94B9
:1032A000D02B462F6091B6067091B706CE010196DD
:1032B0000E943B07AA85BB851C968D919D910D9020
:1032C000BC91A02D8A8B9B8BAC8BBD8B20E030E01A
:1032D00040E050E4BC01CD010E94522B8111CEC0D0
:1032E000EEEFFFEFFF87EE878EEF282E33243A9420
:1032F0002E853F853195219531093F8B2E8B8E850B
:10330000082E000C990BAA0BBB0B888F998FAA8FE4
:10331000BB8F122D8E859F8597FF02C08E899F8956
:10332000910137FE04C02227332722193309820F67
:10333000931F049709F456C0688D798D8A8D9B8DF3
:103340000E94012CAA85BB8514962D913D914D912B
:103350005C9117970E94E62A20E030E040E851E4B3
:103360000E94E62A20E030E040E851E40E94472C29
:103370004B015C0120E030E0A9010E94522B87FD47
:1033800031C0612F110F770B880B990B0E94012C14
:10339000A70196010E94E62A2B013C0120E030E0C3
:1033A000A9010E94522B87FD1DC020E030E040E7BC
:1033B00051E4C501B4010E94132D18169CF020E0C1
:1033C00030E040E751E4C301B2010E94132D18160A
:1033D0004CF08E010F5F1F4FA3019201C501B40194
:1033E0000E94E211BFEF2B1A3B0AE3E02E163104D4
:1033F00009F08FCF2E853F852F5F3F4F3F872E8768
:103400002330310509F070CFEA85FB8580849184F3
:10341000A284B3842A893B894C895D89C701B6019E
:103420000E94E62A20E030E040E751E40E94132D9C
:1034300087FD9FC0A701960160E070E080E791E4FE
:103440000E94E52A2A893B894C895D890E94572B75
:103450002AE037ED43EA5BE30E94E62AA5019401E6
:103460000E94182DA70196010E94E62AAA85BB8515
:103470006D937D938D939C931397A7C022242A94D8
:1034800033243A94822D022C000C990BAA0BBB0B0F
:103490008E879F87A88BB98B9FEF291619F0A2E022
:1034A0002A1208C0BFEF3B1609F45BC0E2E03E16EB
:1034B00009F457C06E857F85888999890E94012CFF
:1034C000AA85BB8514962D913D914D915C911797DE
:1034D0000E94E62A20E030E040E851E40E94E62A1B
:1034E00020E030E040E851E40E94472C4B015C01B1
:1034F00020E030E0A9010E94522B87FD32C0632DED
:10350000032C000C770B880B990B0E94012CA70150
:1035100096010E94E62A2B013C0120E030E0A9013F
:103520000E94522B87FD1DC020E030E040E751E4AF
:10353000C501B4010E94132D18169CF020E030E064
:1035400040E751E4C301B2010E94132D18164CF05C
:103550008E010F5F1F4FA3019201C501B4010E94AC
:10356000E2113394B3E03B1297CF23942B1288CF10
:103570004BCF2A893B894C895D89C701B6010E94DE
:10358000E52A20E030E0A9010E94522B18160CF425
:103590007BC02A893B894C895D89C701B6010E949D
:1035A000572B2AE037ED43EA5BE30E94E62AA501A8
:1035B00094010E94182DA70196010E94E62AEA852F
:1035C000FB856083718382839383EA85FB85C0805A
:1035D000D180E280F3802AE037ED43E25CE3C7016B
:1035E000B6010E94522B87FF54C00E947D14F6E062
:1035F0008F9FC001112465E0690F70E090E080E0CA
:103600000E94FF2B6B017C01E09137018E2FEE0FA2
:10361000990BFC01EE0FFF1FE80FF91FE65FFE4F4D
:10362000818161E071E0681B710990E080E00E9497
:10363000FF2B9B01AC01C701B6010E94572B20E074
:1036400030E040E85EE30E94182DAA85BB851896FD
:103650006D937D938D939C931B978AE097EDA3E2E6
:10366000BCE3EA85FB8580839183A283B3832A85AB
:103670003B85205F3F4F3B872A878BE192E0821793
:10368000930709F0FECDB6CAA5019401C701B601A2
:10369000EBCE2AE037ED4FE651E4C701B6010E94B8
:1036A000132D181624F70E947D14F6E08F9FC00199
:1036B000112465E0690F70E090E080E00E94FF2B2C
:1036C0006B017C01E09137018E2FEE0F990BFC010D
:1036D000EE0FFF1FE80FF91FE65FFE4F818161E0EB
:1036E00071E0681B710990E080E00E94FF2B9B0154
:1036F000AC01C701B6010E94572B20E030E040E842
:103700005EE30E94182D9058AA85BB8518966D938C
:103710007D938D939C931B978AE097EDAFE6B1E480
:10372000A0CF80910901882381F010920901809136
:10373000180190E090930801809307018091170190
:1037400090E090930601809305010E948E13B1E2F0
:10375000AB2EB2E0BB2E6501F12CEE24EA944501BC
:1037600010E000E0F601E00FF11F8081D4019C9190
:103770009C83ED828E83BE016F5F7F4FCE010496E6
:103780000E948D0DAE014F5F5F4F602F8F2D0E9405
:10379000C0110F5F1F4FB0E18B0E911C003111055E
:1037A00009F7F394EFEFAE1ABE0AF0E1CF0ED11C89
:1037B00020E1F212D4CF8091AA018F5F8093AA01F9
:1037C00019CA80910901882389F1E0915303F0E03F
:1037D000EE0FFF1FE15AFE4F008111810093B606E4
:1037E0001093B7060E948E1310920901C801AEE62D
:1037F000B6E02EE936E0FC01459155916591749152
:103800006C9311965C93119712964C9312970496B1
:1038100013962A173B0779F780911A0190E090934D
:1038200006018093050181E0809304010091050168
:10383000109106010233110508F02DC1302E31948C
:10384000330C330C38EC330D3A87F1E26F2EF2E093
:103850007F2E5301F12CE12C4A854195488F4090F1
:10386000070150900801E49CC001E59C900DF49C78
:10387000900D11249F8B8E8B912C812CD12CC12CDF
:10388000A0912503B0912603BF87AE872090230324
:1038900030902403E0912103F0912203FB8BEA8B0B
:1038A000B401620D731DAD018E899F898E0F9F1F1C
:1038B0000E94B00B282F30E1231B08F420E0322FA8
:1038C00047E2349F030E30E0311D1124230F08F42A
:1038D0002FEFF501EC0DFD1D8A85882371F03081F5
:1038E000482F349F030E30E0311D1124488D249F52
:1038F000020E20E0211D1124230F20838FEFC81A10
:10390000D80A840C951C90E1C916D10409F0B8CFEF
:10391000AFEFEA1AFA0AB0E1AB0EB11CE0E1EE1625
:10392000F10409F09CCF8E859F85800F911F9093A5
:10393000260380932503C80163E0969587956A95D1
:10394000E1F72A893B89820F931F9093220380938A
:10395000210374E0169507957A95E1F7C101801B64
:10396000910B9093240380932303E1E2EE2EE2E097
:10397000FE2EA12C630110E000E0602FD6012C91F7
:10398000F701E00FF11F8081B090AA01909104012E
:1039900091112B0D87FD81C0880F382F339F030EA7
:1039A00030E0311D1124832F322F32953F702F705C
:1039B000E32FEE0FE30FF0E0E259F94F4081518120
:1039C0009281222309F42BC033963F3011F4EEE6A6
:1039D000F6E02295207F722F7095342F379F030ECB
:1039E00030E0311D4081429F040E40E0411D430FF5
:1039F000579F050E50E0511D3181329F030E30E07C
:103A0000311D530F392F379F030E30E0311D932F97
:103A10003281329F030E30E0311D930F11248F3F0E
:103A2000D1F0882309F43BC021E0280F442321F082
:103A3000429F040E40E0411D552321F0529F050E88
:103A400050E0511D992331F0392F329F030E30E0A1
:103A5000311D932F112449835A839B83AE014F5FFD
:103A60005F4F8A2D0E94C0110F5F1F4F40E1C40EAF
:103A7000D11C0031110509F080CFA3948FEF681A93
:103A8000780A90E1E90EF11CA0E1AA1273CFB39479
:103A9000B092AA01AFC81A86D8CE8FEF85CF90E03A
:103AA00050E040E0D8CF80910901882309F4A2C8F2
:103AB0001092090100915B0610915C060115110539
:103AC00099F0F80182819381009749F02585368528
:103AD000B901660F771F620F731F0E942F07D8016D
:103AE00014960D911C91EACF60911E0170E090E058
:103AF00080E00E94012C29E23CE54FE85DE30E9452
:103B0000182D6B017C010E94D02B062F10E0B8010C
:103B1000012E000C880B990B0E94012C9B01AC011B
:103B2000C701B6010E94E52A20E030E04FE753E4E8
:103B30000E94182D0E94D02BC62E28E0D22E37E0EE
:103B4000E32EF12C5701A01AB10A86E090E04C0157
:103B5000801A910A412C512C32014A940DE21FEF38
:103B6000EA14FB0444F411E0E814F9040CF410E046
:103B70001C9D102D112420911D0130E0AAEAB0E017
:103B80000E94D62AA30192010E94822A09832A83D5
:103B90001B83BE016C5F7F4FCE0101960E948D0D8D
:103BA00010E08C8189838D818A838E818B83AE0125
:103BB0004F5F5F4F6E2D812F0E94C0118C818983D2
:103BC0008D818A838E818B83AE014F5F5F4F6D2D18
:103BD000812F0E94C0111F5F103119F7B1E0EB1A5D
:103BE000F108D394E0E1DE12BACF0C94FA1505E5A2
:103BF00013E095E5E92E96E0F92EDD24DA94609144
:103C0000200170E090E080E00E94012C20E030E094
:103C100040E250E40E94182D0E94D02BC62E6091E5
:103C2000210170E090E080E00E94012C20E030E073
:103C300040E250E40E94182D0E94D02B6983CA8272
:103C4000DB82B801CE0101960E948D0D0D5F1F4FE2
:103C5000E016F106A1F60C94FA15F090240180917B
:103C60002002F80EF092200205E513E085E5C82E4B
:103C700086E0D82EEE24EA94F982EA82EB82B8013B
:103C8000CE0101960E948D0D0D5F1F4FC016D1060B
:103C900099F70C94FA1510E0F4E62F2E312CA2E0DF
:103CA0006A2EB3E05B2E05E5402E00E0602F812FE9
:103CB0000E9498116B017C0177247394700E672D1C
:103CC000812F0E9498114B015C0181149104F0E94D
:103CD000AF06B10408F443C00E94142A20E730E084
:103CE00040E050E00E94822A672B682B692BB9F1D3
:103CF000A9829A828B82AE014F5F5F4F602F812F26
:103D00000E94C011072D0F3089F66FE0812F0E94AD
:103D10009811611571058105910509F072C0E09156
:103D200037018E2FEE0F990BFC01EE0FFF1FE80FEE
:103D3000F91FE65FFE4F8281B101681B7109072EF2
:103D4000000C880B990B0E942815672B682B692B98
:103D500009F06DC08BE9898388EF8A8360C0C11444
:103D6000D104E104F10431F5E09137018E2FEE0F1B
:103D7000990BFC01EE0FFF1FE80FF91FE65FFE4FE6
:103D80008281B101681B7109E4E0660F771FEA9533
:103D9000E1F7072E000C880B990B0E942815672B62
:103DA000682B692B09F0AECF3BE9398348EF4A8392
:103DB0001B82A1CF21E0C21628E0D20625E0E20650
:103DC000F10460F4C114D10493E0E906F10418F49D
:103DD00019821A82EDCF69825A82EACFC114D104C6
:103DE00080E9E806F10420F0498298E89A83E0CF60
:103DF000A0E1DA1AAAE0EA0AF108E982DA82CB82C3
:103E00007ACF6130B8E07B07B5E08B079105C0F44D
:103E1000611571058340910580F069825A821B8289
:103E2000AE014F5F5F4F6FE0812F0E94C0111F5F97
:103E3000103109F03ACF0C94FA1519821A82EFCF9B
:103E400061157105F0E98F07910518F0498288E83E
:103E500084CFDC01CB019051AA40B109A9839A8398
:103E60008B83DECF0E94091310E06EE0812F0E9449
:103E70009811672B682B692BE9F5E09137018E2F9C
:103E8000EE0F990BFC01EE0FFF1FE80FF91FE65F25
:103E9000FE4F628170E090E080E061157105810560
:103EA000910511F564E070E080E090E00E94281533
:103EB0009B01AC0160EF7FEE8FEE9FEF0E94D22D51
:103EC000DC01CB010197AF41BF4FA9839A838B835C
:103ED000AE014F5F5F4F6FE0812F0E94C0111F5FE7
:103EE000103119F60C94FA150E942815672B682BCF
:103EF000692BC1F219821A821B82EACF45E5E42EB2
:103F000043E0F42E670118E0BB24BA94612F80E0EF
:103F10000E94981101E0010F672B682B692BC1F5F6
:103F200060E270E080E090E00E942815672B682B2B
:103F3000692B71F5602F80E00E949811672B682B28
:103F4000692B31F56FEF610F80E00E949811672BAC
:103F5000682B692BE9F4E09137018E2FEE0F990B56
:103F6000FC01EE0FFF1FE80FF91FE65FFE4F128105
:103F700068EC70E080E090E00E94281569831A8365
:103F8000BB82B601605B7E4FCE0101960E948D0D13
:103F900020E3C21AD108102F003109F0B7CF10E08A
:103FA000DD24DA946FE0812F0E94981101E0010F67
:103FB000672B682B692BB1F560E270E080E090E040
:103FC0000E942815672B682B692B61F56FE0802F05
:103FD0000E949811672B682B692B21F56FE08FEFFA
:103FE000810F0E949811672B682B692BD9F4E091FF
:103FF00037018E2FEE0F990BFC01EE0FFF1FE80F1C
:10400000F91FE65FFE4F128168EC70E080E090E0FF
:104010000E94281569831A83DB82B701CE010196BD
:104020000E948D0D33E0E30EF11C102F083009F0D3
:10403000B9CF11E0EE24EA94E10E0FE0FF24FA94E8
:10404000F00E612F8F2D0E94981189837A836B83E4
:10405000AE014F5F5F4F6E2D802F0E94C0110F2D5C
:10406000F110ECCF1F5F103129F718E048E7612FFE
:1040700080E00E9434131F5F1031C1F710E046E466
:104080006FE0812F0E9434131F5F1830C1F70C942A
:10409000FA1580910901882309F46BC01092090177
:1040A00020913001622F70E090E080E0263580F4AE
:1040B0006150710981099109B2E0660F771F881F6D
:1040C000991FBA95D1F724E530E040E050E013C0E5
:1040D0002655253508F093C06A5A7109810991095E
:1040E00012E0660F771F881F991F1A95D1F72CEAE7
:1040F0003FEF4FEF5FEF0E94822A2F5F3F4F4F4FFE
:104100005F4F2093A90100E510E01093A6010093F2
:10411000A5016CE070E080E090E00E942815685FE7
:104120007F4F8F4F9F4F6093A3011093A80100937F
:10413000A7016CE070E080E090E00E942815685FC5
:104140007F4F8F4F9F4F6093A40169E070E080E044
:1041500090E00E9428158CE1689F602D11246983EE
:104160008FEF8A838B8360EA71E0CE0101960E9413
:104170008D0DE09137018E2FEE0F990BFC01EE0FA4
:10418000FF1FE80FF91FE65FFE4F828180FF3EC0F0
:104190000091A9018091A7019091A8012AE030E047
:1041A000B9010E94EE2D162F8091A5019091A601D4
:1041B000B9010E94EE2D20E0AFE0B0E0021731F12E
:1041C000422F460F50E030E00317F1F0832F810FAC
:1041D000FD01E81BF10974E0EE0FFF1F7A95E1F78E
:1041E000CF01840F951FFC01EE0FFF1FE80FF91F91
:1041F000EB5AFC4F1082118212823F5FE5CF6B5A5F
:1042000071098109910958CF2F5FD8CF05EA11E0D4
:1042100043EAE42E41E0F42E59EAC52E51E0D52EB2
:104220006CE1A62EBB24BA94D7018D917D01F801D3
:1042300020813181280F311D87FD3A9537FDBDC0A2
:10424000318320830E5F1F4FC016D10669F720917E
:10425000A90180E190E0821B91094AE0489F90010A
:10426000499F300D11248091A5019091A601281736
:104270003907ECF43093A6012093A5018091A301A6
:1042800081958093A30169E070E080E090E00E9456
:1042900028158CE1689F602D112469838FEF8A8334
:1042A0008B8360EA71E0CE0101960E948D0D209112
:1042B000A90180E190E0821B91094AE0489F9001AA
:1042C000499F300D11248091A7019091A8012817D2
:1042D0003907ECF43093A8012093A7018091A40141
:1042E00081958093A40169E070E080E090E00E94F5
:1042F00028158CE1689F602D112469838FEF8A83D4
:104300008B8360EA71E0CE0101960E948D0DE091F1
:1043100037018E2FEE0F990BFC01EE0FFF1FE80FF8
:10432000F91FE65FFE4F2281263508F05FC060E08E
:1043300073E085E593E00E942F070091A901809129
:10434000A7019091A8012AE030E0B9010E94EE2D6A
:10435000162F8091A5019091A601B9010E94EE2D22
:104360007091A001F090A101E090A20120E0AFE0E7
:10437000B0E0021711F40C94FA15422F460F50E0EA
:1043800030E0031709F468C0832F810FFD01E81B9B
:10439000F10984E0EE0FFF1F8A95E1F7CF01840F4A
:1043A000951FFC01EE0FFF1FE80FF91FEB5AFC4FA2
:1043B0007083F182E2823F5FE4CF11821082F701C5
:1043C00031978195808369E070E080E090E00E9401
:1043D00028156A9D602D11246983BA82BB8260EA28
:1043E00071E0CE0101960E948D0D2CCF318146EFF8
:1043F0004303C00111246FEF70E00E94EE2D26559B
:104400002535B0F4635E162F109595E5E92E93E0FF
:10441000F92E25E5C22E26E0D22E612FC7010E947B
:104420006F0E83E0E80EF11CCE14DF04B1F785CFE8
:10443000625F162F109585E5E82E83E0F82E612F38
:10444000C7010E946F0E93E0E90EF11CA5E5EA1684
:10445000A6E0FA06A1F771CF2F5F8BCF80910901FB
:10446000882309F477C01092090174E9E72E71E0FE
:10447000F72E0EE811E0E5E8CE2EE1E0DE2E912CDD
:10448000F0E5AF2EB12C88248A94F701B182A08286
:1044900062E070E080E090E00E9428157724739439
:1044A000672B682B692B11F477247A946BE070E00A
:1044B00080E090E00E9428156C5F7F4F8F4F9F4FE8
:1044C000769E602D1124D8016C93F701B382A282ED
:1044D00062E070E080E090E00E94281577247394F9
:1044E000672B682B692B11F477247A946BE070E0CA
:1044F00080E090E00E9428156C5F7F4F8F4F9F4FA8
:10450000769E602D1124D80111966C939394E091BE
:1045100037018E2FEE0F990BFC01EE0FFF1FE80FF6
:10452000F91FE65FFE4F8281989E802D11248983BA
:104530008A828B82B601CE0101960E948D0DB4E075
:10454000EB0EF11C0E5F1F4FE3E0CE0ED11CF3E02B
:104550009F129BCF0E947C13E4E9F1E02EE831E04A
:1045600005E811E096E9C92ED12C4AE0E42EF12CA1
:104570005FE0A52EB12CD9018C9140815181480F6B
:10458000511D87FD5A9557FD62C051834083D90163
:1045900011968C91119742815381480F511D87FDCF
:1045A0005A9557FD59C05383428380819181873941
:1045B000910534F0D182C082D9018C9181958C9380
:1045C00082819381873991054CF0D382C282D901CF
:1045D00011968C911197819511968C93828193817C
:1045E000B7010E94EE2D4501861A910854E0880C0F
:1045F000991C5A95E1F780819181B7010E94EE2DB7
:10460000680D792D711DDB01AA0FBB1FA60FB71F07
:10461000AD014B5A5C4FD8018C91DA018C93D801D3
:1046200011968C91DA0111968C93D80112968C9187
:10463000DA0112968C9334962E5F3F4F0D5F1F4F19
:10464000B1E0E03AFB0709F096CF0C94FA1511821D
:10465000108281958C939BCF138212828195119643
:104660008C93A3CFD090020180910901882369F136
:10467000109209012091360130E050E040E02150D5
:10468000310941095109A4E2B0E00E94A12A23E2C4
:1046900030E040E050E00E94822A21503109410977
:1046A000510920930301DD2009F453C089E0809370
:1046B00084010E947D148093B0069FEF9093B10611
:1046C0009093B206805A8093B306E0900301DD20F8
:1046D00009F442C00E9409134FE0C42EE4E6EE9EA6
:1046E00080011124E12C3AE0B32EAA24AA94F09080
:1046F0008401F8012F2D3B2D2302E00DF11D112423
:104700008E2D6B2D0E94E22DE90FF11DE855FD4F16
:10471000E491F0E0CF01880F991FE80FF91FE256EE
:10472000F94F9081818122819C838D83222309F41A
:10473000B1C0AE82BE016F5F7F4FCE0104960E9472
:104740008D0DAE014F5F5F4F6C2D8E2D0E94C011FD
:1047500022C010928401ADCF10E000E1FF24FA9452
:10476000F00E6F2D812F0E94981189837A836B83BD
:10477000AE014F5F5F4F602F812F0E94C0110F2D40
:10478000F110ECCF1F5F103141F7C12CA7CFFFE034
:10479000FE1508F0ACCFE3944AE1E412F8CFDD2037
:1047A00009F47AC08FEF8F0D1F140CF089E080930D
:1047B000840180917C0181112DC0E09137018E2F01
:1047C000EE0F990BFC01EE0FFF1FE80FF91FE65FDC
:1047D000FE4F218130E050E040E068EC75E58FE06D
:1047E00090E00E94B42A69017A010E943308609324
:1047F0007401709375018093760190937701C09254
:104800007801D0927901E0927A01F0927B0181E007
:1048100080937C010E94330800917401109175010E
:104820002091760130917701601B710B820B930B05
:10483000009178011091790120917A0130917B01EA
:10484000601771078207930710F40C94FA150E9401
:10485000330860937401709375018093760190938F
:104860007701E09137018E2FEE0F990BFC01EE0FCF
:10487000FF1FE80FF91FE65FFE4F9281913029F488
:104880008091020189278093020181E080930901D0
:104890000C94FA151E824ECF88E08F1524F0F39405
:1048A000F092840186CFF12CFBCF19821A821B82F1
:1048B000AE014F5F5F4F0C943916E09137018E2F98
:1048C000EE0F990BFC01EE0FFF1FE80FF91FE65FDB
:1048D000FE4F61816150770B072E000C880B990BFE
:1048E0000E94012C0E948B2D0E94D02B60931B02F2
:1048F00010E05FE0E52E64E6D62E0FEFFE2CF11AF5
:1049000080911B021817B0F0D9820A830B83BE0175
:104910006C5F7F4FCE0101960E948D0DAE014C5F02
:104920005F4F6F2D80E00E94C0111F5F113131F782
:104930000C94401619821A821B82AE014F5F5F4FA2
:10494000F0CFE09137018E2FEE0F990BFC01EE0FA7
:10495000FF1FE80FF91FE65FFE4F628170E06F5F97
:104960007F4F072E000C880B990B0E94012C0E9490
:104970008B2D0E94D02B60931B0210E036E9F32EA2
:104980000FEF80911B021817B0F4F9820A830B8392
:10499000BE016C5F7F4FCE0101960E948D0DAE016E
:1049A0004C5F5F4F612F80E00E94C0111F5F10318C
:1049B00041F70C94401619821A821B82AE014F5F98
:1049C0005F4FF0CFCF93DF9380913801882369F157
:1049D0000E944615D0E0C0E0E09137018E2FEE0F27
:1049E000990BFC01EE0FFF1FE80FF91FE65FFE4F6A
:1049F00080818C171D0669F064F0C093610661E048
:104A000070E080E090E00E9401080E943F08289634
:104A1000E3CF8093610662E070E080E090E00E9466
:104A20000108DF91CF910C943F080E944615E09158
:104A300037018E2FEE0F990BFC01EE0FFF1FE80FD1
:104A4000F91FE65FFE4FC081D0E0C930D10564F0A8
:104A5000C093610661E070E080E090E00E94010890
:104A60000E943F082897F1CF60E073E085E593E06E
:104A70000E942F07D0CF1F920F920FB60F921124D2
:104A80002F933F938F939F93AF93BF9380912A036C
:104A900090912B03A0912C03B0912D033091290309
:104AA00023E0230F2D3758F50196A11DB11D20934A
:104AB000290380932A0390932B03A0932C03B09394
:104AC0002D0380912E0390912F03A0913003B0917C
:104AD00031030196A11DB11D80932E0390932F03E6
:104AE000A0933003B0933103BF91AF919F918F9109
:104AF0003F912F910F900FBE0F901F90189526E8B1
:104B0000230F0296A11DB11DD2CFCF93CFEFC0933B
:104B10006106109263061092620610926D06109262
:104B20006C068FEF9FEFDC01809368069093690617
:104B3000A0936A06B0936B0662E08CED96E00E944B
:104B4000921463E08AEC96E00E94921464E088EB91
:104B500096E00E94921487EC9DE09093B7068093B4
:104B6000B60610929E0610929F061092A006109212
:104B7000A106C093A206C093A30680E68093A40674
:104B8000C093A506C093A60680EA8093A706C093AB
:104B9000A806C093A90680E48093AA06C093AB063A
:104BA000C093AC061092AD061092AE068CED8093C9
:104BB000AF061092B006C093B106C093B206109231
:104BC000B306C093B406C093B50687EC9DE0AEE68D
:104BD000B6E0FC0145915591659174916C931196E5
:104BE0005C93119712964C9312970496139626E0B5
:104BF000AE39B20771F7CF910895789484B5826089
:104C000084BD84B5816084BD85B5826085BD85B570
:104C1000816085BD80916E00816080936E001092EE
:104C20008100809181008260809381008091810069
:104C300081608093810080918000816080938000FA
:104C40008091B10084608093B1008091B000816058
:104C50008093B00080917A00846080937A00809184
:104C60007A00826080937A0080917A0081608093DC
:104C70007A0080917A00806880937A001092C10057
:104C800080914503811145C010923703109236037D
:104C90008FEF80933A0380933B0380933C03809390
:104CA0003D0380933E0380933F0381E08093400364
:104CB000109242031092410310923903109238036C
:104CC00080915B0690915C06892B31F484E393E03C
:104CD00090935C0680935B06E0913203F09133037E
:104CE000309721F084E393E09583848384E393E019
:104CF0009093330380933203109244031092430342
:104D000081E591E0909335038093340381E08093B3
:104D10004503569A85E593E09093370380933603D5
:104D200080E091E090934203809341038091640678
:104D300090916506A0916606B0916706843C29E0D3
:104D40009207A105B10520F484EC99E0A0E0B0E061
:104D50008093640690936506A0936606B0936706F9
:104D60008FEF80933A0380EB80933B0380EF809337
:104D70003C0384E68093610681EB9AE090936D0694
:104D800080936C0688E893E1A0E0B0E08093680629
:104D900090936906A0936A06B0936B0660E073E097
:104DA00085E593E00E942F070E943F0890E080E095
:104DB0000E944415863609F581E090E00E94441572
:104DC000809337010AE011E0CBE0D0E0CE010E94F1
:104DD0004415F8018083CE0101960E944415F80124
:104DE0008183CE0102960E944415F80182832396A6
:104DF0000D5F1F4FC833D10549F75FE0552E77246B
:104E00007394D9E160E0C62E60E0D62EC1E073E075
:104E1000B72EE2E0AE2E4EE0642E0E944615809141
:104E200054038823E1F0809138018823C1F00E9467
:104E30003308683873418105910588F00E947D141C
:104E4000859DC00111249093370160E073E085E5F2
:104E500093E00E942F070E943308C09309018CED54
:104E600096E00E9451098AEC96E00E94510988EB75
:104E700096E00E9451098AEC96E00E94980A8823E5
:104E800049F080913801882309F4D6C11092380185
:104E90000E94E22480913801882309F40EC28CED2F
:104EA00096E00E94980A882329F1809137018F5F4C
:104EB0008F300CF0C4C180933701E09137018E2F01
:104EC000EE0F990BFC01EE0FFF1FE80FF91FE65FD5
:104ED000FE4F808180936106C093090160E073E01A
:104EE00085E593E00E942F0761E070E080E090E0AC
:104EF0000E94010888EB96E00E94980A882321F11D
:104F000080913701815087FD9DC180933701E091E9
:104F100037018E2FEE0F990BFC01EE0FFF1FE80FEC
:104F2000F91FE65FFE4F808180936106C0930901FF
:104F300060E073E085E593E00E942F0761E070E098
:104F400080E090E00E9401088091DE0680FF04C0AE
:104F50008CED96E00E9451098091DC0684FF66C0CA
:104F60008F7E8093DC068091E906853009F05EC073
:104F700090E080E00E944415863629F066E690E0D5
:104F800080E00E94421581E090E00E94441560910B
:104F90003701262F062E000C330B8217130621F043
:104FA00081E090E00E9442158AE0E82E81E0F82E30
:104FB0000BE010E0C8010E944415F70160818617DC
:104FC00019F0C8010E9442154801FFEF8F1A9F0A8D
:104FD000C4010E944415F7016181861719F0C401CC
:104FE0000E9442154801F2E08F0E911CC4010E94FC
:104FF0004415F7016281861719F0C4010E94421519
:105000000D5F1F4FF3E0EF0EF11C0833110591F611
:10501000109238010E94E22468EC70E080E090E099
:105020000E940108C09338010E94E2248091CC06BE
:1050300080FF04C08AEC96E00E9451098091CA0664
:1050400084FF0CC09091D706933041F48F7E8093FB
:10505000CA06809154038725809354038091CC061F
:1050600080FF04C08AEC96E00E9451098091CA0634
:1050700084FF10C09091D706923061F48F7E8093A8
:10508000CA06809153038A3008F4DFC0109253039C
:10509000C09309018091DE0680FF04C08CED96E08C
:1050A0000E9451098091DC06982F907E903239F44D
:1050B0008F718093DC06C0935203C093510380919B
:1050C000BA0680FF04C088EB96E00E9451098091E7
:1050D000B806982F907E903239F48F718093B8067D
:1050E00010925203C09351038091DE0680FF04C0EA
:1050F0008CED96E00E9451098091DC06982F907EFD
:10510000903439F48F718093DC06C0935203A092DF
:1051100051038091BA0680FF04C088EB96E00E949C
:1051200051098091B806982F907E903439F48F7190
:105130008093B80610925203A09251038091DE062C
:1051400080FF04C08CED96E00E9451098091DC063E
:10515000982F907E903639F48F718093DC06C0933F
:105160005203B09251038091BA0680FF04C088EBCD
:1051700096E00E9451098091B806982F907E903653
:1051800039F48F718093B80610925203B092510394
:105190008CED96E00E945E0A882309F45AC01091B3
:1051A0005103112351F00E94330860934D03709313
:1051B0004E0380934F0390935003C09309012091B5
:1051C0003701022E000C330B123009F47FC013306C
:1051D00009F4ADC0113009F042C0F901EE0FFF1F14
:1051E000DF01A20FB31FA65FBE4FAC9140915203E7
:1051F00050E0440F551F415051098A2F6D2F0E94D6
:10520000E22D90E00196489FB001499F700D589F94
:10521000700D11246A0F711D161617060CF054C07C
:105220006F3F710519F014F06FEF70E0E20FF31F9C
:10523000E65FFE4F608313C0C093380129CE109201
:1052400037013BCE6092370162CE8F5F809353036C
:105250001FCF8AEC96E00E945E0A8111A0CF0E94C7
:10526000330800914D0310914E0320914F0330916C
:105270005003601B710B820B930B693E73408105D9
:10528000910560F0109251030E94330860934D0322
:1052900070934E0380934F0390935003E091370136
:1052A0008E2FEE0F990BFC01EE0FFF1FE80FF91F79
:1052B000E65FFE4F808180936106C114D10409F43A
:1052C000ACCD0E940000A7CD61E0B0CFF901EE0F98
:1052D000FF1FDF01A20FB31FA65FBE4F1196AC9157
:1052E0004091520350E0440F551F415051098A2FFD
:1052F0006D2F0E94E22D90E00196489FB001499FDA
:10530000700D589F700D11246A0F711D1616170627
:1053100064F46F3F710519F014F06FEF70E0E20F65
:10532000F31FE65FFE4F61839ACF61E0F8CFF9018A
:10533000EE0FFF1FDF01A20FB31FA65FBE4F129635
:10534000AC914091520350E0440F551F4150510918
:105350008A2F6D2F0E94E22D90E00196489FB001A8
:10536000499F700D589F700D11246A0F711D1616FC
:10537000170664F46F3F710519F014F06FEF70E0D9
:10538000E20FF31FE65FFE4F628369CF61E0F8CF63
:105390008F929F92AF92BF92CF92DF92EF92FF9245
:1053A000CF93DF93EC01688179818A819B816115BC
:1053B00071058105910521F464E279ED8BE597E0B3
:1053C0002DE133EF41E050E00E94822A49015A0169
:1053D0009B01AC01A7EAB1E40E94A12A6B017C0108
:1053E000ACEEB4EFA50194010E94AF2AC60ED71E01
:1053F000E81EF91EF7FE06C081E0C81AD108E108D0
:1054000080E8F80AC882D982EA82FB82C701B60125
:105410009F77DF91CF91FF90EF90DF90CF90BF907B
:10542000AF909F908F9008958F929F92AF92BF926E
:10543000CF92DF92EF92FF926091390170913A0121
:1054400080913B0190913C016115710581059105A9
:1054500021F464E279ED8BE597E02DE133EF41E053
:1054600050E00E94822A49015A019B01AC01A7EA3F
:10547000B1E40E94A12A6B017C01ACEEB4EFA5015E
:1054800094010E94AF2AC60ED71EE81EF91EF7FE31
:1054900006C081E0C81AD108E10880E8F80AC09285
:1054A0003901D0923A01E0923B01F0923C01C701F0
:1054B000B6019F77FF90EF90DF90CF90BF90AF90B5
:1054C0009F908F9008956093390170933A01809373
:1054D0003B0190933C010895F999FECF92BD81BDA7
:1054E000F89A992780B50895262FF999FECF1FBA0B
:1054F00092BD81BD20BD0FB6F894FA9AF99A0FBEFD
:1055000001960895052E97FB1EF400940E94992A97
:1055100057FD07D00E94B42A07FC03D04EF40C9428
:10552000992A50954095309521953F4F4F4F5F4FA9
:10553000089590958095709561957F4F8F4F9F4FFF
:1055400008950E94D62AA59F900DB49F900DA49F08
:10555000800D911D11240895B7FF0C94A12A0E947B
:10556000A12A821B930B0895A1E21A2EAA1BBB1B32
:10557000FD010DC0AA1FBB1FEE1FFF1FA217B3071F
:10558000E407F50720F0A21BB30BE40BF50B661F35
:10559000771F881F991F1A9469F7609570958095F9
:1055A00090959B01AC01BD01CF010895A29FB00170
:1055B000B39FC001A39F700D811D1124911DB29F47
:1055C000700D811D1124911D08955058BB27AA27E5
:1055D0000E94FD2A0C94D92C0E94CB2C38F00E94FA
:1055E000D22C20F039F49F3F19F426F40C94C82CE7
:1055F0000EF4E095E7FB0C94B42CE92F0E94EA2C02
:1056000058F3BA17620773078407950720F079F4F7
:10561000A6F50C940C2D0EF4E0950B2EBA2FA02DB0
:105620000B01B90190010C01CA01A0011124FF274F
:10563000591B99F0593F50F4503E68F11A16F0404A
:10564000A22F232F342F4427585FF3CF4695379549
:105650002795A795F0405395C9F77EF41F16BA0B0E
:10566000620B730B840BBAF09150A1F0FF0FBB1FBC
:10567000661F771F881FC2F70EC0BA0F621F731F05
:10568000841F48F4879577956795B795F7959E3F62
:1056900008F0B0CF9395880F08F09927EE0F9795F3
:1056A000879508950E94902C08F481E008950E9447
:1056B0006B2B0C94D92C0E94D22C58F00E94CB2C2E
:1056C00040F029F45F3F29F00C94B42C51110C9454
:1056D0000D2D0C94C82C0E94EA2C68F39923B1F389
:1056E000552391F3951B550BBB27AA276217730708
:1056F000840738F09F5F5F4F220F331F441FAA1F9C
:10570000A9F335D00E2E3AF0E0E832D09150504057
:10571000E695001CCAF72BD0FE2F29D0660F771F05
:10572000881FBB1F261737074807AB07B0E809F0EB
:10573000BB0B802DBF01FF2793585F4F3AF09E3F70
:10574000510578F00C94B42C0C940D2D5F3FE4F3CC
:10575000983ED4F3869577956795B795F7959F5FB3
:10576000C9F7880F911D9695879597F90895E1E0FF
:10577000660F771F881FBB1F621773078407BA075E
:1057800020F0621B730B840BBA0BEE1F88F7E095B9
:1057900008950E94D02B6894B1110C940D2D08959A
:1057A0000E94F22C88F09F5798F0B92F9927B75193
:1057B000B0F0E1F0660F771F881F991F1AF0BA95B5
:1057C000C9F714C0B13091F00E940C2DB1E00895DA
:1057D0000C940C2D672F782F8827B85F39F0B93FCC
:1057E000CCF3869577956795B395D9F73EF4909568
:1057F0008095709561957F4F8F4F9F4F0895E894E6
:1058000009C097FB3EF490958095709561957F4F08
:105810008F4F9F4F9923A9F0F92F96E9BB279395B6
:10582000F695879577956795B795F111F8CFFAF4C6
:10583000BB0F11F460FF1BC06F5F7F4F8F4F9F4FF7
:1058400016C0882311F096E911C0772321F09EE855
:10585000872F762F05C0662371F096E8862F70E0BB
:1058600060E02AF09A95660F771F881FDAF7880F95
:105870009695879597F908950E94CB2C20F019F002
:105880000E94D22C50F40C94C82C0C940D2DE92FAE
:105890000E94EA2C88F35523B1F3E7FB62177307E4
:1058A00084079507A8F189F3E92FFF2788232AF0B9
:1058B0003197660F771F881FDAF7952F55274423F6
:1058C00032F091505040220F331F441FD2F7BB27B4
:1058D000E91BF50B621B730B840BB109B1F222F4C7
:1058E000620F731F841FB11D31972AF0660F771F57
:1058F000881FBB1FEFCF9150504062F041F08823CA
:1059000032F0660F771F881F91505040C1F7939572
:105910000C94BA2C8695779567959F5FD9F7F7CF4A
:10592000990F0008550FAA0BE0E8FEEF16161706B0
:10593000E807F907C0F012161306E407F50798F018
:10594000621B730B840B950B39F40A2661F0232B31
:10595000242B252B21F408950A2609F4A140A695AD
:105960008FEF811D811D089597F99F6780E870E092
:1059700060E008959F3F31F0915020F4879577952E
:105980006795B795880F911D9695879597F9089516
:105990009FEF80EC089500240A9416161706180647
:1059A0000906089500240A94121613061406050623
:1059B0000895092E0394000C11F4882352F0BB0FB4
:1059C00040F4BF2B11F460FF04C06F5F7F4F8F4F17
:1059D0009F4F089557FD9058440F551F59F05F3F52
:1059E00071F04795880F97FB991F61F09F3F79F001
:1059F00087950895121613061406551FF2CF469583
:105A0000F1DF08C0161617061806991FF1CF869504
:105A10007105610508940895E894BB2766277727E8
:105A2000CB0197F908950E94902C08F48FEF089508
:105A30000E942B2D0C94D92C0E94CB2C38F00E9464
:105A4000D22C20F0952311F00C94B42C0C94C82C7B
:105A500011240C940D2D0E94EA2C70F3959FC1F334
:105A6000950F50E0551F629FF001729FBB27F00D0C
:105A7000B11D639FAA27F00DB11DAA1F649F662761
:105A8000B00DA11D661F829F2227B00DA11D621FB0
:105A9000739FB00DA11D621F839FA00D611D221F6A
:105AA000749F3327A00D611D231F849F600D211D4E
:105AB000822F762F6A2F11249F5750409AF0F1F0D1
:105AC00088234AF0EE0FFF1FBB1F661F771F881F3A
:105AD00091505040A9F79E3F510580F00C94B42C92
